{
  "_format": "hh-sol-artifact-1",
  "contractName": "ToDoList",
  "sourceName": "contracts/ToDoList.sol",
  "abi": [
    {
      "inputs": [],
      "stateMutability": "nonpayable",
      "type": "constructor"
    },
    {
      "anonymous": false,
      "inputs": [
        {
          "indexed": true,
          "internalType": "address",
          "name": "account",
          "type": "address"
        },
        {
          "indexed": true,
          "internalType": "uint256",
          "name": "userId",
          "type": "uint256"
        },
        {
          "indexed": false,
          "internalType": "string",
          "name": "message",
          "type": "string"
        },
        {
          "indexed": false,
          "internalType": "bool",
          "name": "completed",
          "type": "bool"
        }
      ],
      "name": "ToDoEvent",
      "type": "event"
    },
    {
      "inputs": [],
      "name": "_idUser",
      "outputs": [
        {
          "internalType": "uint256",
          "name": "",
          "type": "uint256"
        }
      ],
      "stateMutability": "view",
      "type": "function"
    },
    {
      "inputs": [
        {
          "internalType": "string",
          "name": "_message",
          "type": "string"
        }
      ],
      "name": "createList",
      "outputs": [],
      "stateMutability": "nonpayable",
      "type": "function"
    },
    {
      "inputs": [
        {
          "internalType": "uint256",
          "name": "",
          "type": "uint256"
        }
      ],
      "name": "creators",
      "outputs": [
        {
          "internalType": "address",
          "name": "",
          "type": "address"
        }
      ],
      "stateMutability": "view",
      "type": "function"
    },
    {
      "inputs": [],
      "name": "getAddress",
      "outputs": [
        {
          "internalType": "address[]",
          "name": "",
          "type": "address[]"
        }
      ],
      "stateMutability": "view",
      "type": "function"
    },
    {
      "inputs": [
        {
          "internalType": "address",
          "name": "_address",
          "type": "address"
        }
      ],
      "name": "getCreatorData",
      "outputs": [
        {
          "internalType": "address",
          "name": "",
          "type": "address"
        },
        {
          "internalType": "uint256",
          "name": "",
          "type": "uint256"
        },
        {
          "internalType": "string",
          "name": "",
          "type": "string"
        },
        {
          "internalType": "bool",
          "name": "",
          "type": "bool"
        }
      ],
      "stateMutability": "view",
      "type": "function"
    },
    {
      "inputs": [],
      "name": "getMessage",
      "outputs": [
        {
          "internalType": "string[]",
          "name": "",
          "type": "string[]"
        }
      ],
      "stateMutability": "view",
      "type": "function"
    },
    {
      "inputs": [
        {
          "internalType": "uint256",
          "name": "",
          "type": "uint256"
        }
      ],
      "name": "messageIds",
      "outputs": [
        {
          "internalType": "uint256",
          "name": "",
          "type": "uint256"
        }
      ],
      "stateMutability": "view",
      "type": "function"
    },
    {
      "inputs": [
        {
          "internalType": "uint256",
          "name": "",
          "type": "uint256"
        }
      ],
      "name": "messages",
      "outputs": [
        {
          "internalType": "string",
          "name": "",
          "type": "string"
        }
      ],
      "stateMutability": "view",
      "type": "function"
    },
    {
      "inputs": [],
      "name": "ownerOfContract",
      "outputs": [
        {
          "internalType": "address",
          "name": "",
          "type": "address"
        }
      ],
      "stateMutability": "view",
      "type": "function"
    },
    {
      "inputs": [
        {
          "internalType": "address",
          "name": "",
          "type": "address"
        }
      ],
      "name": "toDoListApps",
      "outputs": [
        {
          "internalType": "address",
          "name": "account",
          "type": "address"
        },
        {
          "internalType": "uint256",
          "name": "userId",
          "type": "uint256"
        },
        {
          "internalType": "string",
          "name": "message",
          "type": "string"
        },
        {
          "internalType": "bool",
          "name": "completed",
          "type": "bool"
        }
      ],
      "stateMutability": "view",
      "type": "function"
    },
    {
      "inputs": [
        {
          "internalType": "address",
          "name": "_creator",
          "type": "address"
        }
      ],
      "name": "toggle",
      "outputs": [],
      "stateMutability": "nonpayable",
      "type": "function"
    }
  ],
  "bytecode": "0x608060405234801561001057600080fd5b5033600160006101000a81548173ffffffffffffffffffffffffffffffffffffffff021916908373ffffffffffffffffffffffffffffffffffffffff160217905550611336806100616000396000f3fe608060405234801561001057600080fd5b50600436106100a95760003560e01c806374310d081161007157806374310d081461016957806394432cc51461019c5780639d17b9c5146101ba578063b8dcc68f146101ea578063cd53d08e14610206578063ce6d41de14610236576100a9565b80630d64e697146100ae5780630d80fefd146100e157806338cc483114610111578063468229ae1461012f578063588f9acc1461014d575b600080fd5b6100c860048036038101906100c39190610a48565b610254565b6040516100d89493929190610b48565b60405180910390f35b6100fb60048036038101906100f69190610bc0565b6103d9565b6040516101089190610bed565b60405180910390f35b610119610485565b6040516101269190610ccd565b60405180910390f35b610137610513565b6040516101449190610cef565b60405180910390f35b61016760048036038101906101629190610a48565b610539565b005b610183600480360381019061017e9190610a48565b6105ae565b6040516101939493929190610b48565b60405180910390f35b6101a4610693565b6040516101b19190610d0a565b60405180910390f35b6101d460048036038101906101cf9190610bc0565b610699565b6040516101e19190610d0a565b60405180910390f35b61020460048036038101906101ff9190610d8a565b6106bd565b005b610220600480360381019061021b9190610bc0565b6108af565b60405161022d9190610cef565b60405180910390f35b61023e6108ee565b60405161024b9190610ee3565b60405180910390f35b6000806060600080600560008773ffffffffffffffffffffffffffffffffffffffff1673ffffffffffffffffffffffffffffffffffffffff1681526020019081526020016000206040518060800160405290816000820160009054906101000a900473ffffffffffffffffffffffffffffffffffffffff1673ffffffffffffffffffffffffffffffffffffffff1673ffffffffffffffffffffffffffffffffffffffff1681526020016001820154815260200160028201805461031690610f34565b80601f016020809104026020016040519081016040528092919081815260200182805461034290610f34565b801561038f5780601f106103645761010080835404028352916020019161038f565b820191906000526020600020905b81548152906001019060200180831161037257829003601f168201915b505050505081526020016003820160009054906101000a900460ff161515151581525050905080600001518160200151826040015183606001519450945094509450509193509193565b600381815481106103e957600080fd5b90600052602060002001600091509050805461040490610f34565b80601f016020809104026020016040519081016040528092919081815260200182805461043090610f34565b801561047d5780601f106104525761010080835404028352916020019161047d565b820191906000526020600020905b81548152906001019060200180831161046057829003601f168201915b505050505081565b6060600280548060200260200160405190810160405280929190818152602001828054801561050957602002820191906000526020600020905b8160009054906101000a900473ffffffffffffffffffffffffffffffffffffffff1673ffffffffffffffffffffffffffffffffffffffff16815260200190600101908083116104bf575b5050505050905090565b600160009054906101000a900473ffffffffffffffffffffffffffffffffffffffff1681565b6000600560008373ffffffffffffffffffffffffffffffffffffffff1673ffffffffffffffffffffffffffffffffffffffff16815260200190815260200160002090508060030160009054906101000a900460ff16158160030160006101000a81548160ff0219169083151502179055505050565b60056020528060005260406000206000915090508060000160009054906101000a900473ffffffffffffffffffffffffffffffffffffffff16908060010154908060020180546105fd90610f34565b80601f016020809104026020016040519081016040528092919081815260200182805461062990610f34565b80156106765780601f1061064b57610100808354040283529160200191610676565b820191906000526020600020905b81548152906001019060200180831161065957829003601f168201915b5050505050908060030160009054906101000a900460ff16905084565b60005481565b600481815481106106a957600080fd5b906000526020600020016000915090505481565b6106c56109c7565b6000805490506000600560003373ffffffffffffffffffffffffffffffffffffffff1673ffffffffffffffffffffffffffffffffffffffff1681526020019081526020016000209050338160000160006101000a81548173ffffffffffffffffffffffffffffffffffffffff021916908373ffffffffffffffffffffffffffffffffffffffff160217905550838382600201918261076492919061114b565b5060008160030160006101000a81548160ff0219169083151502179055508181600101819055506002339080600181540180825580915050600190039060005260206000200160009091909190916101000a81548173ffffffffffffffffffffffffffffffffffffffff021916908373ffffffffffffffffffffffffffffffffffffffff160217905550600384849091806001815401808255809150506001900390600052602060002001600090919290919290919290919250918261082b92919061114b565b506004829080600181540180825580915050600190039060005260206000200160009091909190915055813373ffffffffffffffffffffffffffffffffffffffff167f97cb199a6fede85e8843b14a3b82273a76130b0e671f8803ce27aa90d52ee114868660006040516108a193929190611257565b60405180910390a350505050565b600281815481106108bf57600080fd5b906000526020600020016000915054906101000a900473ffffffffffffffffffffffffffffffffffffffff1681565b60606003805480602002602001604051908101604052809291908181526020016000905b828210156109be57838290600052602060002001805461093190610f34565b80601f016020809104026020016040519081016040528092919081815260200182805461095d90610f34565b80156109aa5780601f1061097f576101008083540402835291602001916109aa565b820191906000526020600020905b81548152906001019060200180831161098d57829003601f168201915b505050505081526020019060010190610912565b50505050905090565b6000808154809291906109d9906112b8565b9190505550565b600080fd5b600080fd5b600073ffffffffffffffffffffffffffffffffffffffff82169050919050565b6000610a15826109ea565b9050919050565b610a2581610a0a565b8114610a3057600080fd5b50565b600081359050610a4281610a1c565b92915050565b600060208284031215610a5e57610a5d6109e0565b5b6000610a6c84828501610a33565b91505092915050565b610a7e81610a0a565b82525050565b6000819050919050565b610a9781610a84565b82525050565b600081519050919050565b600082825260208201905092915050565b60005b83811015610ad7578082015181840152602081019050610abc565b60008484015250505050565b6000601f19601f8301169050919050565b6000610aff82610a9d565b610b098185610aa8565b9350610b19818560208601610ab9565b610b2281610ae3565b840191505092915050565b60008115159050919050565b610b4281610b2d565b82525050565b6000608082019050610b5d6000830187610a75565b610b6a6020830186610a8e565b8181036040830152610b7c8185610af4565b9050610b8b6060830184610b39565b95945050505050565b610b9d81610a84565b8114610ba857600080fd5b50565b600081359050610bba81610b94565b92915050565b600060208284031215610bd657610bd56109e0565b5b6000610be484828501610bab565b91505092915050565b60006020820190508181036000830152610c078184610af4565b905092915050565b600081519050919050565b600082825260208201905092915050565b6000819050602082019050919050565b610c4481610a0a565b82525050565b6000610c568383610c3b565b60208301905092915050565b6000602082019050919050565b6000610c7a82610c0f565b610c848185610c1a565b9350610c8f83610c2b565b8060005b83811015610cc0578151610ca78882610c4a565b9750610cb283610c62565b925050600181019050610c93565b5085935050505092915050565b60006020820190508181036000830152610ce78184610c6f565b905092915050565b6000602082019050610d046000830184610a75565b92915050565b6000602082019050610d1f6000830184610a8e565b92915050565b600080fd5b600080fd5b600080fd5b60008083601f840112610d4a57610d49610d25565b5b8235905067ffffffffffffffff811115610d6757610d66610d2a565b5b602083019150836001820283011115610d8357610d82610d2f565b5b9250929050565b60008060208385031215610da157610da06109e0565b5b600083013567ffffffffffffffff811115610dbf57610dbe6109e5565b5b610dcb85828601610d34565b92509250509250929050565b600081519050919050565b600082825260208201905092915050565b6000819050602082019050919050565b600082825260208201905092915050565b6000610e1f82610a9d565b610e298185610e03565b9350610e39818560208601610ab9565b610e4281610ae3565b840191505092915050565b6000610e598383610e14565b905092915050565b6000602082019050919050565b6000610e7982610dd7565b610e838185610de2565b935083602082028501610e9585610df3565b8060005b85811015610ed15784840389528151610eb28582610e4d565b9450610ebd83610e61565b925060208a01995050600181019050610e99565b50829750879550505050505092915050565b60006020820190508181036000830152610efd8184610e6e565b905092915050565b7f4e487b7100000000000000000000000000000000000000000000000000000000600052602260045260246000fd5b60006002820490506001821680610f4c57607f821691505b602082108103610f5f57610f5e610f05565b5b50919050565b600082905092915050565b7f4e487b7100000000000000000000000000000000000000000000000000000000600052604160045260246000fd5b60008190508160005260206000209050919050565b60006020601f8301049050919050565b600082821b905092915050565b6000600883026110017fffffffffffffffffffffffffffffffffffffffffffffffffffffffffffffffff82610fc4565b61100b8683610fc4565b95508019841693508086168417925050509392505050565b6000819050919050565b600061104861104361103e84610a84565b611023565b610a84565b9050919050565b6000819050919050565b6110628361102d565b61107661106e8261104f565b848454610fd1565b825550505050565b600090565b61108b61107e565b611096818484611059565b505050565b5b818110156110ba576110af600082611083565b60018101905061109c565b5050565b601f8211156110ff576110d081610f9f565b6110d984610fb4565b810160208510156110e8578190505b6110fc6110f485610fb4565b83018261109b565b50505b505050565b600082821c905092915050565b600061112260001984600802611104565b1980831691505092915050565b600061113b8383611111565b9150826002028217905092915050565b6111558383610f65565b67ffffffffffffffff81111561116e5761116d610f70565b5b6111788254610f34565b6111838282856110be565b6000601f8311600181146111b257600084156111a0578287013590505b6111aa858261112f565b865550611212565b601f1984166111c086610f9f565b60005b828110156111e8578489013582556001820191506020850194506020810190506111c3565b868310156112055784890135611201601f891682611111565b8355505b6001600288020188555050505b50505050505050565b82818337600083830152505050565b60006112368385610aa8565b935061124383858461121b565b61124c83610ae3565b840190509392505050565b6000604082019050818103600083015261127281858761122a565b90506112816020830184610b39565b949350505050565b7f4e487b7100000000000000000000000000000000000000000000000000000000600052601160045260246000fd5b60006112c382610a84565b91507fffffffffffffffffffffffffffffffffffffffffffffffffffffffffffffffff82036112f5576112f4611289565b5b60018201905091905056fea26469706673582212200dc1e7654f4987861c71ed151b29b59a2f059d6a77cdb2014c04c791a5c0174764736f6c63430008120033",
  "linkReferences": {},
  "deployedLinkReferences": {}
}